{
  "_format": "hh-sol-artifact-1",
  "contractName": "GPTMembership",
  "sourceName": "contracts/GPTMembership.sol",
  "abi": [
    {
      "inputs": [
        {
          "internalType": "string",
          "name": "_name",
          "type": "string"
        },
        {
          "internalType": "string",
          "name": "_symbol",
          "type": "string"
        }
      ],
      "stateMutability": "nonpayable",
      "type": "constructor"
    },
    {
      "inputs": [
        {
          "internalType": "address",
          "name": "sender",
          "type": "address"
        },
        {
          "internalType": "uint256",
          "name": "tokenId",
          "type": "uint256"
        },
        {
          "internalType": "address",
          "name": "owner",
          "type": "address"
        }
      ],
      "name": "ERC721IncorrectOwner",
      "type": "error"
    },
    {
      "inputs": [
        {
          "internalType": "address",
          "name": "operator",
          "type": "address"
        },
        {
          "internalType": "uint256",
          "name": "tokenId",
          "type": "uint256"
        }
      ],
      "name": "ERC721InsufficientApproval",
      "type": "error"
    },
    {
      "inputs": [
        {
          "internalType": "address",
          "name": "approver",
          "type": "address"
        }
      ],
      "name": "ERC721InvalidApprover",
      "type": "error"
    },
    {
      "inputs": [
        {
          "internalType": "address",
          "name": "operator",
          "type": "address"
        }
      ],
      "name": "ERC721InvalidOperator",
      "type": "error"
    },
    {
      "inputs": [
        {
          "internalType": "address",
          "name": "owner",
          "type": "address"
        }
      ],
      "name": "ERC721InvalidOwner",
      "type": "error"
    },
    {
      "inputs": [
        {
          "internalType": "address",
          "name": "receiver",
          "type": "address"
        }
      ],
      "name": "ERC721InvalidReceiver",
      "type": "error"
    },
    {
      "inputs": [
        {
          "internalType": "address",
          "name": "sender",
          "type": "address"
        }
      ],
      "name": "ERC721InvalidSender",
      "type": "error"
    },
    {
      "inputs": [
        {
          "internalType": "uint256",
          "name": "tokenId",
          "type": "uint256"
        }
      ],
      "name": "ERC721NonexistentToken",
      "type": "error"
    },
    {
      "anonymous": false,
      "inputs": [
        {
          "indexed": true,
          "internalType": "address",
          "name": "owner",
          "type": "address"
        },
        {
          "indexed": true,
          "internalType": "address",
          "name": "approved",
          "type": "address"
        },
        {
          "indexed": true,
          "internalType": "uint256",
          "name": "tokenId",
          "type": "uint256"
        }
      ],
      "name": "Approval",
      "type": "event"
    },
    {
      "anonymous": false,
      "inputs": [
        {
          "indexed": true,
          "internalType": "address",
          "name": "owner",
          "type": "address"
        },
        {
          "indexed": true,
          "internalType": "address",
          "name": "operator",
          "type": "address"
        },
        {
          "indexed": false,
          "internalType": "bool",
          "name": "approved",
          "type": "bool"
        }
      ],
      "name": "ApprovalForAll",
      "type": "event"
    },
    {
      "anonymous": false,
      "inputs": [
        {
          "indexed": true,
          "internalType": "address",
          "name": "from",
          "type": "address"
        },
        {
          "indexed": true,
          "internalType": "address",
          "name": "to",
          "type": "address"
        },
        {
          "indexed": true,
          "internalType": "uint256",
          "name": "tokenId",
          "type": "uint256"
        }
      ],
      "name": "Transfer",
      "type": "event"
    },
    {
      "inputs": [],
      "name": "MY_CONTRACT",
      "outputs": [
        {
          "internalType": "string",
          "name": "",
          "type": "string"
        }
      ],
      "stateMutability": "view",
      "type": "function"
    },
    {
      "inputs": [
        {
          "internalType": "address",
          "name": "to",
          "type": "address"
        },
        {
          "internalType": "uint256",
          "name": "tokenId",
          "type": "uint256"
        }
      ],
      "name": "approve",
      "outputs": [],
      "stateMutability": "nonpayable",
      "type": "function"
    },
    {
      "inputs": [
        {
          "internalType": "address",
          "name": "owner",
          "type": "address"
        }
      ],
      "name": "balanceOf",
      "outputs": [
        {
          "internalType": "uint256",
          "name": "",
          "type": "uint256"
        }
      ],
      "stateMutability": "view",
      "type": "function"
    },
    {
      "inputs": [
        {
          "internalType": "uint256",
          "name": "tokenId",
          "type": "uint256"
        }
      ],
      "name": "getApproved",
      "outputs": [
        {
          "internalType": "address",
          "name": "",
          "type": "address"
        }
      ],
      "stateMutability": "view",
      "type": "function"
    },
    {
      "inputs": [
        {
          "internalType": "uint256",
          "name": "_membershipId",
          "type": "uint256"
        }
      ],
      "name": "getMemebership",
      "outputs": [
        {
          "components": [
            {
              "internalType": "uint256",
              "name": "id",
              "type": "uint256"
            },
            {
              "internalType": "string",
              "name": "name",
              "type": "string"
            },
            {
              "internalType": "uint256",
              "name": "cost",
              "type": "uint256"
            },
            {
              "internalType": "string",
              "name": "date",
              "type": "string"
            }
          ],
          "internalType": "struct GPTMembership.Membership",
          "name": "",
          "type": "tuple"
        }
      ],
      "stateMutability": "view",
      "type": "function"
    },
    {
      "inputs": [
        {
          "internalType": "uint256",
          "name": "_membershipId",
          "type": "uint256"
        }
      ],
      "name": "getMemebershipTaken",
      "outputs": [
        {
          "internalType": "uint256[]",
          "name": "",
          "type": "uint256[]"
        }
      ],
      "stateMutability": "view",
      "type": "function"
    },
    {
      "inputs": [
        {
          "internalType": "address",
          "name": "_address",
          "type": "address"
        }
      ],
      "name": "getUserMembership",
      "outputs": [
        {
          "components": [
            {
              "internalType": "uint256",
              "name": "id",
              "type": "uint256"
            },
            {
              "internalType": "uint256",
              "name": "membershipId",
              "type": "uint256"
            },
            {
              "internalType": "address",
              "name": "addressUser",
              "type": "address"
            },
            {
              "internalType": "uint256",
              "name": "cost",
              "type": "uint256"
            },
            {
              "internalType": "string",
              "name": "expireDate",
              "type": "string"
            }
          ],
          "internalType": "struct GPTMembership.UserMembership",
          "name": "",
          "type": "tuple"
        }
      ],
      "stateMutability": "view",
      "type": "function"
    },
    {
      "inputs": [
        {
          "internalType": "uint256",
          "name": "",
          "type": "uint256"
        },
        {
          "internalType": "address",
          "name": "",
          "type": "address"
        }
      ],
      "name": "hasBought",
      "outputs": [
        {
          "internalType": "bool",
          "name": "",
          "type": "bool"
        }
      ],
      "stateMutability": "view",
      "type": "function"
    },
    {
      "inputs": [
        {
          "internalType": "address",
          "name": "owner",
          "type": "address"
        },
        {
          "internalType": "address",
          "name": "operator",
          "type": "address"
        }
      ],
      "name": "isApprovedForAll",
      "outputs": [
        {
          "internalType": "bool",
          "name": "",
          "type": "bool"
        }
      ],
      "stateMutability": "view",
      "type": "function"
    },
    {
      "inputs": [
        {
          "internalType": "string",
          "name": "_name",
          "type": "string"
        },
        {
          "internalType": "uint256",
          "name": "_cost",
          "type": "uint256"
        },
        {
          "internalType": "string",
          "name": "_date",
          "type": "string"
        }
      ],
      "name": "list",
      "outputs": [],
      "stateMutability": "nonpayable",
      "type": "function"
    },
    {
      "inputs": [
        {
          "internalType": "uint256",
          "name": "",
          "type": "uint256"
        },
        {
          "internalType": "uint256",
          "name": "",
          "type": "uint256"
        }
      ],
      "name": "membershipTaken",
      "outputs": [
        {
          "internalType": "address",
          "name": "",
          "type": "address"
        }
      ],
      "stateMutability": "view",
      "type": "function"
    },
    {
      "inputs": [],
      "name": "membershipTypes",
      "outputs": [
        {
          "internalType": "uint256",
          "name": "",
          "type": "uint256"
        }
      ],
      "stateMutability": "view",
      "type": "function"
    },
    {
      "inputs": [
        {
          "internalType": "uint256",
          "name": "_membershipId",
          "type": "uint256"
        },
        {
          "internalType": "address",
          "name": "_user",
          "type": "address"
        },
        {
          "internalType": "string",
          "name": "_expiredDate",
          "type": "string"
        }
      ],
      "name": "mint",
      "outputs": [],
      "stateMutability": "payable",
      "type": "function"
    },
    {
      "inputs": [],
      "name": "name",
      "outputs": [
        {
          "internalType": "string",
          "name": "",
          "type": "string"
        }
      ],
      "stateMutability": "view",
      "type": "function"
    },
    {
      "inputs": [],
      "name": "owner",
      "outputs": [
        {
          "internalType": "address",
          "name": "",
          "type": "address"
        }
      ],
      "stateMutability": "view",
      "type": "function"
    },
    {
      "inputs": [
        {
          "internalType": "uint256",
          "name": "tokenId",
          "type": "uint256"
        }
      ],
      "name": "ownerOf",
      "outputs": [
        {
          "internalType": "address",
          "name": "",
          "type": "address"
        }
      ],
      "stateMutability": "view",
      "type": "function"
    },
    {
      "inputs": [
        {
          "internalType": "address",
          "name": "from",
          "type": "address"
        },
        {
          "internalType": "address",
          "name": "to",
          "type": "address"
        },
        {
          "internalType": "uint256",
          "name": "tokenId",
          "type": "uint256"
        }
      ],
      "name": "safeTransferFrom",
      "outputs": [],
      "stateMutability": "nonpayable",
      "type": "function"
    },
    {
      "inputs": [
        {
          "internalType": "address",
          "name": "from",
          "type": "address"
        },
        {
          "internalType": "address",
          "name": "to",
          "type": "address"
        },
        {
          "internalType": "uint256",
          "name": "tokenId",
          "type": "uint256"
        },
        {
          "internalType": "bytes",
          "name": "data",
          "type": "bytes"
        }
      ],
      "name": "safeTransferFrom",
      "outputs": [],
      "stateMutability": "nonpayable",
      "type": "function"
    },
    {
      "inputs": [
        {
          "internalType": "address",
          "name": "operator",
          "type": "address"
        },
        {
          "internalType": "bool",
          "name": "approved",
          "type": "bool"
        }
      ],
      "name": "setApprovalForAll",
      "outputs": [],
      "stateMutability": "nonpayable",
      "type": "function"
    },
    {
      "inputs": [
        {
          "internalType": "bytes4",
          "name": "interfaceId",
          "type": "bytes4"
        }
      ],
      "name": "supportsInterface",
      "outputs": [
        {
          "internalType": "bool",
          "name": "",
          "type": "bool"
        }
      ],
      "stateMutability": "view",
      "type": "function"
    },
    {
      "inputs": [],
      "name": "symbol",
      "outputs": [
        {
          "internalType": "string",
          "name": "",
          "type": "string"
        }
      ],
      "stateMutability": "view",
      "type": "function"
    },
    {
      "inputs": [
        {
          "internalType": "uint256",
          "name": "tokenId",
          "type": "uint256"
        }
      ],
      "name": "tokenURI",
      "outputs": [
        {
          "internalType": "string",
          "name": "",
          "type": "string"
        }
      ],
      "stateMutability": "view",
      "type": "function"
    },
    {
      "inputs": [],
      "name": "totalMemberships",
      "outputs": [
        {
          "internalType": "uint256",
          "name": "",
          "type": "uint256"
        }
      ],
      "stateMutability": "view",
      "type": "function"
    },
    {
      "inputs": [
        {
          "internalType": "address",
          "name": "from",
          "type": "address"
        },
        {
          "internalType": "address",
          "name": "to",
          "type": "address"
        },
        {
          "internalType": "uint256",
          "name": "tokenId",
          "type": "uint256"
        }
      ],
      "name": "transferFrom",
      "outputs": [],
      "stateMutability": "nonpayable",
      "type": "function"
    },
    {
      "inputs": [],
      "name": "withdarw",
      "outputs": [],
      "stateMutability": "nonpayable",
      "type": "function"
    }
  ],
  "bytecode": "0x60806040526040518060400160405280600c81526020017f4a4552454d49414820542e410000000000000000000000000000000000000000815250600990816200004a919062000369565b503480156200005857600080fd5b5060405162003a9d38038062003a9d83398181016040528101906200007e9190620005b4565b8181816000908162000091919062000369565b508060019081620000a3919062000369565b50505033600660006101000a81548173ffffffffffffffffffffffffffffffffffffffff021916908373ffffffffffffffffffffffffffffffffffffffff160217905550505062000639565b600081519050919050565b7f4e487b7100000000000000000000000000000000000000000000000000000000600052604160045260246000fd5b7f4e487b7100000000000000000000000000000000000000000000000000000000600052602260045260246000fd5b600060028204905060018216806200017157607f821691505b60208210810362000187576200018662000129565b5b50919050565b60008190508160005260206000209050919050565b60006020601f8301049050919050565b600082821b905092915050565b600060088302620001f17fffffffffffffffffffffffffffffffffffffffffffffffffffffffffffffffff82620001b2565b620001fd8683620001b2565b95508019841693508086168417925050509392505050565b6000819050919050565b6000819050919050565b60006200024a620002446200023e8462000215565b6200021f565b62000215565b9050919050565b6000819050919050565b620002668362000229565b6200027e620002758262000251565b848454620001bf565b825550505050565b600090565b6200029562000286565b620002a28184846200025b565b505050565b5b81811015620002ca57620002be6000826200028b565b600181019050620002a8565b5050565b601f8211156200031957620002e3816200018d565b620002ee84620001a2565b81016020851015620002fe578190505b620003166200030d85620001a2565b830182620002a7565b50505b505050565b600082821c905092915050565b60006200033e600019846008026200031e565b1980831691505092915050565b60006200035983836200032b565b9150826002028217905092915050565b6200037482620000ef565b67ffffffffffffffff81111562000390576200038f620000fa565b5b6200039c825462000158565b620003a9828285620002ce565b600060209050601f831160018114620003e15760008415620003cc578287015190505b620003d885826200034b565b86555062000448565b601f198416620003f1866200018d565b60005b828110156200041b57848901518255600182019150602085019450602081019050620003f4565b868310156200043b578489015162000437601f8916826200032b565b8355505b6001600288020188555050505b505050505050565b6000604051905090565b600080fd5b600080fd5b600080fd5b600080fd5b6000601f19601f8301169050919050565b6200048a826200046e565b810181811067ffffffffffffffff82111715620004ac57620004ab620000fa565b5b80604052505050565b6000620004c162000450565b9050620004cf82826200047f565b919050565b600067ffffffffffffffff821115620004f257620004f1620000fa565b5b620004fd826200046e565b9050602081019050919050565b60005b838110156200052a5780820151818401526020810190506200050d565b60008484015250505050565b60006200054d6200054784620004d4565b620004b5565b9050828152602081018484840111156200056c576200056b62000469565b5b620005798482856200050a565b509392505050565b600082601f83011262000599576200059862000464565b5b8151620005ab84826020860162000536565b91505092915050565b60008060408385031215620005ce57620005cd6200045a565b5b600083015167ffffffffffffffff811115620005ef57620005ee6200045f565b5b620005fd8582860162000581565b925050602083015167ffffffffffffffff8111156200062157620006206200045f565b5b6200062f8582860162000581565b9150509250929050565b61345480620006496000396000f3fe6080604052600436106101665760003560e01c80639485cfed116100d1578063bcd57d041161008a578063e67e402c11610064578063e67e402c1461059a578063e985e9c5146105b6578063f7884856146105f3578063f9efde301461060a57610166565b8063bcd57d04146104f7578063c87b56dd14610520578063d12196841461055d57610166565b80639485cfed146103e757806395d89b41146104125780639bb11c421461043d5780639cb04aef14610468578063a22cb465146104a5578063b88d4fde146104ce57610166565b806342842e0e1161012357806342842e0e1461029f5780634365ddda146102c85780636352211e146103055780636c9dc8a11461034257806370a082311461037f5780638da5cb5b146103bc57610166565b806301ffc9a71461016b57806306fdde03146101a8578063081812fc146101d3578063095ea7b31461021057806323b872dd146102395780633d07be7b14610262575b600080fd5b34801561017757600080fd5b50610192600480360381019061018d9190612381565b610635565b60405161019f91906123c9565b60405180910390f35b3480156101b457600080fd5b506101bd610717565b6040516101ca9190612474565b60405180910390f35b3480156101df57600080fd5b506101fa60048036038101906101f591906124cc565b6107a9565b604051610207919061253a565b60405180910390f35b34801561021c57600080fd5b5061023760048036038101906102329190612581565b6107c5565b005b34801561024557600080fd5b50610260600480360381019061025b91906125c1565b6107db565b005b34801561026e57600080fd5b5061028960048036038101906102849190612614565b6108dd565b604051610296919061271f565b60405180910390f35b3480156102ab57600080fd5b506102c660048036038101906102c191906125c1565b610a3c565b005b3480156102d457600080fd5b506102ef60048036038101906102ea91906124cc565b610a5c565b6040516102fc91906127ab565b60405180910390f35b34801561031157600080fd5b5061032c600480360381019061032791906124cc565b610bc1565b604051610339919061253a565b60405180910390f35b34801561034e57600080fd5b50610369600480360381019061036491906124cc565b610bd3565b604051610376919061287c565b60405180910390f35b34801561038b57600080fd5b506103a660048036038101906103a19190612614565b610c3e565b6040516103b391906128ad565b60405180910390f35b3480156103c857600080fd5b506103d1610cf8565b6040516103de919061253a565b60405180910390f35b3480156103f357600080fd5b506103fc610d1e565b60405161040991906128ad565b60405180910390f35b34801561041e57600080fd5b50610427610d24565b6040516104349190612474565b60405180910390f35b34801561044957600080fd5b50610452610db6565b60405161045f91906128ad565b60405180910390f35b34801561047457600080fd5b5061048f600480360381019061048a91906128c8565b610dbc565b60405161049c91906123c9565b60405180910390f35b3480156104b157600080fd5b506104cc60048036038101906104c79190612934565b610deb565b005b3480156104da57600080fd5b506104f560048036038101906104f09190612aa9565b610e01565b005b34801561050357600080fd5b5061051e60048036038101906105199190612bcd565b610e1e565b005b34801561052c57600080fd5b50610547600480360381019061054291906124cc565b610f46565b6040516105549190612474565b60405180910390f35b34801561056957600080fd5b50610584600480360381019061057f9190612c58565b610faf565b604051610591919061253a565b60405180910390f35b6105b460048036038101906105af9190612c98565b610ff1565b005b3480156105c257600080fd5b506105dd60048036038101906105d89190612d07565b6112e0565b6040516105ea91906123c9565b60405180910390f35b3480156105ff57600080fd5b50610608611374565b005b34801561061657600080fd5b5061061f61149f565b60405161062c9190612474565b60405180910390f35b60007f80ac58cd000000000000000000000000000000000000000000000000000000007bffffffffffffffffffffffffffffffffffffffffffffffffffffffff1916827bffffffffffffffffffffffffffffffffffffffffffffffffffffffff1916148061070057507f5b5e139f000000000000000000000000000000000000000000000000000000007bffffffffffffffffffffffffffffffffffffffffffffffffffffffff1916827bffffffffffffffffffffffffffffffffffffffffffffffffffffffff1916145b80610710575061070f8261152d565b5b9050919050565b60606000805461072690612d76565b80601f016020809104026020016040519081016040528092919081815260200182805461075290612d76565b801561079f5780601f106107745761010080835404028352916020019161079f565b820191906000526020600020905b81548152906001019060200180831161078257829003601f168201915b5050505050905090565b60006107b482611597565b506107be8261161f565b9050919050565b6107d782826107d261165c565b611664565b5050565b600073ffffffffffffffffffffffffffffffffffffffff168273ffffffffffffffffffffffffffffffffffffffff160361084d5760006040517f64a0ae92000000000000000000000000000000000000000000000000000000008152600401610844919061253a565b60405180910390fd5b6000610861838361085c61165c565b611676565b90508373ffffffffffffffffffffffffffffffffffffffff168173ffffffffffffffffffffffffffffffffffffffff16146108d7578382826040517f64283d7b0000000000000000000000000000000000000000000000000000000081526004016108ce93929190612da7565b60405180910390fd5b50505050565b6108e56122a8565b600a60008373ffffffffffffffffffffffffffffffffffffffff1673ffffffffffffffffffffffffffffffffffffffff1681526020019081526020016000206040518060a001604052908160008201548152602001600182015481526020016002820160009054906101000a900473ffffffffffffffffffffffffffffffffffffffff1673ffffffffffffffffffffffffffffffffffffffff1673ffffffffffffffffffffffffffffffffffffffff168152602001600382015481526020016004820180546109b390612d76565b80601f01602080910402602001604051908101604052809291908181526020018280546109df90612d76565b8015610a2c5780601f10610a0157610100808354040283529160200191610a2c565b820191906000526020600020905b815481529060010190602001808311610a0f57829003601f168201915b5050505050815250509050919050565b610a5783838360405180602001604052806000815250610e01565b505050565b610a646122ed565b600b600083815260200190815260200160002060405180608001604052908160008201548152602001600182018054610a9c90612d76565b80601f0160208091040260200160405190810160405280929190818152602001828054610ac890612d76565b8015610b155780601f10610aea57610100808354040283529160200191610b15565b820191906000526020600020905b815481529060010190602001808311610af857829003601f168201915b5050505050815260200160028201548152602001600382018054610b3890612d76565b80601f0160208091040260200160405190810160405280929190818152602001828054610b6490612d76565b8015610bb15780601f10610b8657610100808354040283529160200191610bb1565b820191906000526020600020905b815481529060010190602001808311610b9457829003601f168201915b5050505050815250509050919050565b6000610bcc82611597565b9050919050565b6060600e6000838152602001908152602001600020805480602002602001604051908101604052809291908181526020018280548015610c3257602002820191906000526020600020905b815481526020019060010190808311610c1e575b50505050509050919050565b60008073ffffffffffffffffffffffffffffffffffffffff168273ffffffffffffffffffffffffffffffffffffffff1603610cb15760006040517f89c62b64000000000000000000000000000000000000000000000000000000008152600401610ca8919061253a565b60405180910390fd5b600360008373ffffffffffffffffffffffffffffffffffffffff1673ffffffffffffffffffffffffffffffffffffffff168152602001908152602001600020549050919050565b600660009054906101000a900473ffffffffffffffffffffffffffffffffffffffff1681565b60075481565b606060018054610d3390612d76565b80601f0160208091040260200160405190810160405280929190818152602001828054610d5f90612d76565b8015610dac5780601f10610d8157610100808354040283529160200191610dac565b820191906000526020600020905b815481529060010190602001808311610d8f57829003601f168201915b5050505050905090565b60085481565b600c6020528160005260406000206020528060005260406000206000915091509054906101000a900460ff1681565b610dfd610df661165c565b8383611890565b5050565b610e0c8484846107db565b610e18848484846119ff565b50505050565b600660009054906101000a900473ffffffffffffffffffffffffffffffffffffffff1673ffffffffffffffffffffffffffffffffffffffff163373ffffffffffffffffffffffffffffffffffffffff1614610eae576040517f08c379a0000000000000000000000000000000000000000000000000000000008152600401610ea590612e50565b60405180910390fd5b60076000815480929190610ec190612e9f565b91905055506040518060800160405280600754815260200184815260200183815260200182815250600b60006007548152602001908152602001600020600082015181600001556020820151816001019081610f1d9190613093565b50604082015181600201556060820151816003019081610f3d9190613093565b50905050505050565b6060610f5182611597565b506000610f5c611bb6565b90506000815111610f7c5760405180602001604052806000815250610fa7565b80610f8684611bcd565b604051602001610f979291906131a1565b6040516020818303038152906040525b915050919050565b600d6020528160005260406000206020528060005260406000206000915091509054906101000a900473ffffffffffffffffffffffffffffffffffffffff1681565b60008303611034576040517f08c379a000000000000000000000000000000000000000000000000000000000815260040161102b90613211565b60405180910390fd5b60075483111561104357600080fd5b600b600084815260200190815260200160002060020154341461109b576040517f08c379a00000000000000000000000000000000000000000000000000000000081526004016110929061327d565b60405180910390fd5b600860008154809291906110ae90612e9f565b91905055506040518060a0016040528060085481526020018481526020018373ffffffffffffffffffffffffffffffffffffffff168152602001600b600086815260200190815260200160002060020154815260200182815250600a60008473ffffffffffffffffffffffffffffffffffffffff1673ffffffffffffffffffffffffffffffffffffffff168152602001908152602001600020600082015181600001556020820151816001015560408201518160020160006101000a81548173ffffffffffffffffffffffffffffffffffffffff021916908373ffffffffffffffffffffffffffffffffffffffff1602179055506060820151816003015560808201518160040190816111c19190613093565b509050506001600c600085815260200190815260200160002060003373ffffffffffffffffffffffffffffffffffffffff1673ffffffffffffffffffffffffffffffffffffffff16815260200190815260200160002060006101000a81548160ff02191690831515021790555033600d60008581526020019081526020016000206000600854815260200190815260200160002060006101000a81548173ffffffffffffffffffffffffffffffffffffffff021916908373ffffffffffffffffffffffffffffffffffffffff160217905550600e600084815260200190815260200160002060085490806001815401808255809150506001900390600052602060002001600090919091909150556112db33600854611c9b565b505050565b6000600560008473ffffffffffffffffffffffffffffffffffffffff1673ffffffffffffffffffffffffffffffffffffffff16815260200190815260200160002060008373ffffffffffffffffffffffffffffffffffffffff1673ffffffffffffffffffffffffffffffffffffffff16815260200190815260200160002060009054906101000a900460ff16905092915050565b600660009054906101000a900473ffffffffffffffffffffffffffffffffffffffff1673ffffffffffffffffffffffffffffffffffffffff163373ffffffffffffffffffffffffffffffffffffffff1614611404576040517f08c379a00000000000000000000000000000000000000000000000000000000081526004016113fb90612e50565b60405180910390fd5b6000600660009054906101000a900473ffffffffffffffffffffffffffffffffffffffff1673ffffffffffffffffffffffffffffffffffffffff164760405161144c906132ce565b60006040518083038185875af1925050503d8060008114611489576040519150601f19603f3d011682016040523d82523d6000602084013e61148e565b606091505b505090508061149c57600080fd5b50565b600980546114ac90612d76565b80601f01602080910402602001604051908101604052809291908181526020018280546114d890612d76565b80156115255780601f106114fa57610100808354040283529160200191611525565b820191906000526020600020905b81548152906001019060200180831161150857829003601f168201915b505050505081565b60007f01ffc9a7000000000000000000000000000000000000000000000000000000007bffffffffffffffffffffffffffffffffffffffffffffffffffffffff1916827bffffffffffffffffffffffffffffffffffffffffffffffffffffffff1916149050919050565b6000806115a383611cb9565b9050600073ffffffffffffffffffffffffffffffffffffffff168173ffffffffffffffffffffffffffffffffffffffff160361161657826040517f7e27328900000000000000000000000000000000000000000000000000000000815260040161160d91906128ad565b60405180910390fd5b80915050919050565b60006004600083815260200190815260200160002060009054906101000a900473ffffffffffffffffffffffffffffffffffffffff169050919050565b600033905090565b6116718383836001611cf6565b505050565b60008061168284611cb9565b9050600073ffffffffffffffffffffffffffffffffffffffff168373ffffffffffffffffffffffffffffffffffffffff16146116c4576116c3818486611ebb565b5b600073ffffffffffffffffffffffffffffffffffffffff168173ffffffffffffffffffffffffffffffffffffffff161461175557611706600085600080611cf6565b6001600360008373ffffffffffffffffffffffffffffffffffffffff1673ffffffffffffffffffffffffffffffffffffffff168152602001908152602001600020600082825403925050819055505b600073ffffffffffffffffffffffffffffffffffffffff168573ffffffffffffffffffffffffffffffffffffffff16146117d8576001600360008773ffffffffffffffffffffffffffffffffffffffff1673ffffffffffffffffffffffffffffffffffffffff168152602001908152602001600020600082825401925050819055505b846002600086815260200190815260200160002060006101000a81548173ffffffffffffffffffffffffffffffffffffffff021916908373ffffffffffffffffffffffffffffffffffffffff160217905550838573ffffffffffffffffffffffffffffffffffffffff168273ffffffffffffffffffffffffffffffffffffffff167fddf252ad1be2c89b69c2b068fc378daa952ba7f163c4a11628f55a4df523b3ef60405160405180910390a4809150509392505050565b600073ffffffffffffffffffffffffffffffffffffffff168273ffffffffffffffffffffffffffffffffffffffff160361190157816040517f5b08ba180000000000000000000000000000000000000000000000000000000081526004016118f8919061253a565b60405180910390fd5b80600560008573ffffffffffffffffffffffffffffffffffffffff1673ffffffffffffffffffffffffffffffffffffffff16815260200190815260200160002060008473ffffffffffffffffffffffffffffffffffffffff1673ffffffffffffffffffffffffffffffffffffffff16815260200190815260200160002060006101000a81548160ff0219169083151502179055508173ffffffffffffffffffffffffffffffffffffffff168373ffffffffffffffffffffffffffffffffffffffff167f17307eab39ab6107e8899845ad3d59bd9653f200f220920489ca2b5937696c31836040516119f291906123c9565b60405180910390a3505050565b60008373ffffffffffffffffffffffffffffffffffffffff163b1115611bb0578273ffffffffffffffffffffffffffffffffffffffff1663150b7a02611a4361165c565b8685856040518563ffffffff1660e01b8152600401611a659493929190613338565b6020604051808303816000875af1925050508015611aa157506040513d601f19601f82011682018060405250810190611a9e9190613399565b60015b611b25573d8060008114611ad1576040519150601f19603f3d011682016040523d82523d6000602084013e611ad6565b606091505b506000815103611b1d57836040517f64a0ae92000000000000000000000000000000000000000000000000000000008152600401611b14919061253a565b60405180910390fd5b805181602001fd5b63150b7a0260e01b7bffffffffffffffffffffffffffffffffffffffffffffffffffffffff1916817bffffffffffffffffffffffffffffffffffffffffffffffffffffffff191614611bae57836040517f64a0ae92000000000000000000000000000000000000000000000000000000008152600401611ba5919061253a565b60405180910390fd5b505b50505050565b606060405180602001604052806000815250905090565b606060006001611bdc84611f7f565b01905060008167ffffffffffffffff811115611bfb57611bfa61297e565b5b6040519080825280601f01601f191660200182016040528015611c2d5781602001600182028036833780820191505090505b509050600082602001820190505b600115611c90578080600190039150507f3031323334353637383961626364656600000000000000000000000000000000600a86061a8153600a8581611c8457611c836133c6565b5b04945060008503611c3b575b819350505050919050565b611cb58282604051806020016040528060008152506120d2565b5050565b60006002600083815260200190815260200160002060009054906101000a900473ffffffffffffffffffffffffffffffffffffffff169050919050565b8080611d2f5750600073ffffffffffffffffffffffffffffffffffffffff168273ffffffffffffffffffffffffffffffffffffffff1614155b15611e63576000611d3f84611597565b9050600073ffffffffffffffffffffffffffffffffffffffff168373ffffffffffffffffffffffffffffffffffffffff1614158015611daa57508273ffffffffffffffffffffffffffffffffffffffff168173ffffffffffffffffffffffffffffffffffffffff1614155b8015611dbd5750611dbb81846112e0565b155b15611dff57826040517fa9fbf51f000000000000000000000000000000000000000000000000000000008152600401611df6919061253a565b60405180910390fd5b8115611e6157838573ffffffffffffffffffffffffffffffffffffffff168273ffffffffffffffffffffffffffffffffffffffff167f8c5be1e5ebec7d5bd14f71427d1e84f3dd0314c0f7b2291e5b200ac8c7c3b92560405160405180910390a45b505b836004600085815260200190815260200160002060006101000a81548173ffffffffffffffffffffffffffffffffffffffff021916908373ffffffffffffffffffffffffffffffffffffffff16021790555050505050565b611ec68383836120ee565b611f7a57600073ffffffffffffffffffffffffffffffffffffffff168373ffffffffffffffffffffffffffffffffffffffff1603611f3b57806040517f7e273289000000000000000000000000000000000000000000000000000000008152600401611f3291906128ad565b60405180910390fd5b81816040517f177e802f000000000000000000000000000000000000000000000000000000008152600401611f719291906133f5565b60405180910390fd5b505050565b600080600090507a184f03e93ff9f4daa797ed6e38ed64bf6a1f0100000000000000008310611fdd577a184f03e93ff9f4daa797ed6e38ed64bf6a1f0100000000000000008381611fd357611fd26133c6565b5b0492506040810190505b6d04ee2d6d415b85acef8100000000831061201a576d04ee2d6d415b85acef810000000083816120105761200f6133c6565b5b0492506020810190505b662386f26fc10000831061204957662386f26fc10000838161203f5761203e6133c6565b5b0492506010810190505b6305f5e1008310612072576305f5e1008381612068576120676133c6565b5b0492506008810190505b612710831061209757612710838161208d5761208c6133c6565b5b0492506004810190505b606483106120ba57606483816120b0576120af6133c6565b5b0492506002810190505b600a83106120c9576001810190505b80915050919050565b6120dc83836121af565b6120e960008484846119ff565b505050565b60008073ffffffffffffffffffffffffffffffffffffffff168373ffffffffffffffffffffffffffffffffffffffff16141580156121a657508273ffffffffffffffffffffffffffffffffffffffff168473ffffffffffffffffffffffffffffffffffffffff161480612167575061216684846112e0565b5b806121a557508273ffffffffffffffffffffffffffffffffffffffff1661218d8361161f565b73ffffffffffffffffffffffffffffffffffffffff16145b5b90509392505050565b600073ffffffffffffffffffffffffffffffffffffffff168273ffffffffffffffffffffffffffffffffffffffff16036122215760006040517f64a0ae92000000000000000000000000000000000000000000000000000000008152600401612218919061253a565b60405180910390fd5b600061222f83836000611676565b9050600073ffffffffffffffffffffffffffffffffffffffff168173ffffffffffffffffffffffffffffffffffffffff16146122a35760006040517f73c6ac6e00000000000000000000000000000000000000000000000000000000815260040161229a919061253a565b60405180910390fd5b505050565b6040518060a001604052806000815260200160008152602001600073ffffffffffffffffffffffffffffffffffffffff16815260200160008152602001606081525090565b6040518060800160405280600081526020016060815260200160008152602001606081525090565b6000604051905090565b600080fd5b600080fd5b60007fffffffff0000000000000000000000000000000000000000000000000000000082169050919050565b61235e81612329565b811461236957600080fd5b50565b60008135905061237b81612355565b92915050565b6000602082840312156123975761239661231f565b5b60006123a58482850161236c565b91505092915050565b60008115159050919050565b6123c3816123ae565b82525050565b60006020820190506123de60008301846123ba565b92915050565b600081519050919050565b600082825260208201905092915050565b60005b8381101561241e578082015181840152602081019050612403565b60008484015250505050565b6000601f19601f8301169050919050565b6000612446826123e4565b61245081856123ef565b9350612460818560208601612400565b6124698161242a565b840191505092915050565b6000602082019050818103600083015261248e818461243b565b905092915050565b6000819050919050565b6124a981612496565b81146124b457600080fd5b50565b6000813590506124c6816124a0565b92915050565b6000602082840312156124e2576124e161231f565b5b60006124f0848285016124b7565b91505092915050565b600073ffffffffffffffffffffffffffffffffffffffff82169050919050565b6000612524826124f9565b9050919050565b61253481612519565b82525050565b600060208201905061254f600083018461252b565b92915050565b61255e81612519565b811461256957600080fd5b50565b60008135905061257b81612555565b92915050565b600080604083850312156125985761259761231f565b5b60006125a68582860161256c565b92505060206125b7858286016124b7565b9150509250929050565b6000806000606084860312156125da576125d961231f565b5b60006125e88682870161256c565b93505060206125f98682870161256c565b925050604061260a868287016124b7565b9150509250925092565b60006020828403121561262a5761262961231f565b5b60006126388482850161256c565b91505092915050565b61264a81612496565b82525050565b61265981612519565b82525050565b600082825260208201905092915050565b600061267b826123e4565b612685818561265f565b9350612695818560208601612400565b61269e8161242a565b840191505092915050565b600060a0830160008301516126c16000860182612641565b5060208301516126d46020860182612641565b5060408301516126e76040860182612650565b5060608301516126fa6060860182612641565b50608083015184820360808601526127128282612670565b9150508091505092915050565b6000602082019050818103600083015261273981846126a9565b905092915050565b60006080830160008301516127596000860182612641565b50602083015184820360208601526127718282612670565b91505060408301516127866040860182612641565b506060830151848203606086015261279e8282612670565b9150508091505092915050565b600060208201905081810360008301526127c58184612741565b905092915050565b600081519050919050565b600082825260208201905092915050565b6000819050602082019050919050565b60006128058383612641565b60208301905092915050565b6000602082019050919050565b6000612829826127cd565b61283381856127d8565b935061283e836127e9565b8060005b8381101561286f57815161285688826127f9565b975061286183612811565b925050600181019050612842565b5085935050505092915050565b60006020820190508181036000830152612896818461281e565b905092915050565b6128a781612496565b82525050565b60006020820190506128c2600083018461289e565b92915050565b600080604083850312156128df576128de61231f565b5b60006128ed858286016124b7565b92505060206128fe8582860161256c565b9150509250929050565b612911816123ae565b811461291c57600080fd5b50565b60008135905061292e81612908565b92915050565b6000806040838503121561294b5761294a61231f565b5b60006129598582860161256c565b925050602061296a8582860161291f565b9150509250929050565b600080fd5b600080fd5b7f4e487b7100000000000000000000000000000000000000000000000000000000600052604160045260246000fd5b6129b68261242a565b810181811067ffffffffffffffff821117156129d5576129d461297e565b5b80604052505050565b60006129e8612315565b90506129f482826129ad565b919050565b600067ffffffffffffffff821115612a1457612a1361297e565b5b612a1d8261242a565b9050602081019050919050565b82818337600083830152505050565b6000612a4c612a47846129f9565b6129de565b905082815260208101848484011115612a6857612a67612979565b5b612a73848285612a2a565b509392505050565b600082601f830112612a9057612a8f612974565b5b8135612aa0848260208601612a39565b91505092915050565b60008060008060808587031215612ac357612ac261231f565b5b6000612ad18782880161256c565b9450506020612ae28782880161256c565b9350506040612af3878288016124b7565b925050606085013567ffffffffffffffff811115612b1457612b13612324565b5b612b2087828801612a7b565b91505092959194509250565b600067ffffffffffffffff821115612b4757612b4661297e565b5b612b508261242a565b9050602081019050919050565b6000612b70612b6b84612b2c565b6129de565b905082815260208101848484011115612b8c57612b8b612979565b5b612b97848285612a2a565b509392505050565b600082601f830112612bb457612bb3612974565b5b8135612bc4848260208601612b5d565b91505092915050565b600080600060608486031215612be657612be561231f565b5b600084013567ffffffffffffffff811115612c0457612c03612324565b5b612c1086828701612b9f565b9350506020612c21868287016124b7565b925050604084013567ffffffffffffffff811115612c4257612c41612324565b5b612c4e86828701612b9f565b9150509250925092565b60008060408385031215612c6f57612c6e61231f565b5b6000612c7d858286016124b7565b9250506020612c8e858286016124b7565b9150509250929050565b600080600060608486031215612cb157612cb061231f565b5b6000612cbf868287016124b7565b9350506020612cd08682870161256c565b925050604084013567ffffffffffffffff811115612cf157612cf0612324565b5b612cfd86828701612b9f565b9150509250925092565b60008060408385031215612d1e57612d1d61231f565b5b6000612d2c8582860161256c565b9250506020612d3d8582860161256c565b9150509250929050565b7f4e487b7100000000000000000000000000000000000000000000000000000000600052602260045260246000fd5b60006002820490506001821680612d8e57607f821691505b602082108103612da157612da0612d47565b5b50919050565b6000606082019050612dbc600083018661252b565b612dc9602083018561289e565b612dd6604083018461252b565b949350505050565b7f4f6e6c79206f776e65722063616e2063616c6c20746869732066756e6374696f60008201527f6e2e000000000000000000000000000000000000000000000000000000000000602082015250565b6000612e3a6022836123ef565b9150612e4582612dde565b604082019050919050565b60006020820190508181036000830152612e6981612e2d565b9050919050565b7f4e487b7100000000000000000000000000000000000000000000000000000000600052601160045260246000fd5b6000612eaa82612496565b91507fffffffffffffffffffffffffffffffffffffffffffffffffffffffffffffffff8203612edc57612edb612e70565b5b600182019050919050565b60008190508160005260206000209050919050565b60006020601f8301049050919050565b600082821b905092915050565b600060088302612f497fffffffffffffffffffffffffffffffffffffffffffffffffffffffffffffffff82612f0c565b612f538683612f0c565b95508019841693508086168417925050509392505050565b6000819050919050565b6000612f90612f8b612f8684612496565b612f6b565b612496565b9050919050565b6000819050919050565b612faa83612f75565b612fbe612fb682612f97565b848454612f19565b825550505050565b600090565b612fd3612fc6565b612fde818484612fa1565b505050565b5b8181101561300257612ff7600082612fcb565b600181019050612fe4565b5050565b601f8211156130475761301881612ee7565b61302184612efc565b81016020851015613030578190505b61304461303c85612efc565b830182612fe3565b50505b505050565b600082821c905092915050565b600061306a6000198460080261304c565b1980831691505092915050565b60006130838383613059565b9150826002028217905092915050565b61309c826123e4565b67ffffffffffffffff8111156130b5576130b461297e565b5b6130bf8254612d76565b6130ca828285613006565b600060209050601f8311600181146130fd57600084156130eb578287015190505b6130f58582613077565b86555061315d565b601f19841661310b86612ee7565b60005b828110156131335784890151825560018201915060208501945060208101905061310e565b86831015613150578489015161314c601f891682613059565b8355505b6001600288020188555050505b505050505050565b600081905092915050565b600061317b826123e4565b6131858185613165565b9350613195818560208601612400565b80840191505092915050565b60006131ad8285613170565b91506131b98284613170565b91508190509392505050565b7f496e76616c6964206d656d626572736869704964000000000000000000000000600082015250565b60006131fb6014836123ef565b9150613206826131c5565b602082019050919050565b6000602082019050818103600083015261322a816131ee565b9050919050565b7f496e737566666963656e742066756e6473000000000000000000000000000000600082015250565b60006132676011836123ef565b915061327282613231565b602082019050919050565b600060208201905081810360008301526132968161325a565b9050919050565b600081905092915050565b50565b60006132b860008361329d565b91506132c3826132a8565b600082019050919050565b60006132d9826132ab565b9150819050919050565b600081519050919050565b600082825260208201905092915050565b600061330a826132e3565b61331481856132ee565b9350613324818560208601612400565b61332d8161242a565b840191505092915050565b600060808201905061334d600083018761252b565b61335a602083018661252b565b613367604083018561289e565b818103606083015261337981846132ff565b905095945050505050565b60008151905061339381612355565b92915050565b6000602082840312156133af576133ae61231f565b5b60006133bd84828501613384565b91505092915050565b7f4e487b7100000000000000000000000000000000000000000000000000000000600052601260045260246000fd5b600060408201905061340a600083018561252b565b613417602083018461289e565b939250505056fea26469706673582212206df4dcb2df2f65b411f8e37ff280474195e7723b797c7d6176d800675fd1563664736f6c63430008180033",
  "linkReferences": {},
  "deployedLinkReferences": {}
}