{
  "_format": "hh-sol-artifact-1",
  "contractName": "GPTMembership",
  "sourceName": "contracts/GPTMembership.sol",
  "abi": [
    {
      "inputs": [
        {
          "internalType": "string",
          "name": "_name",
          "type": "string"
        },
        {
          "internalType": "string",
          "name": "_symbol",
          "type": "string"
        }
      ],
      "stateMutability": "nonpayable",
      "type": "constructor"
    },
    {
      "inputs": [
        {
          "internalType": "address",
          "name": "sender",
          "type": "address"
        },
        {
          "internalType": "uint256",
          "name": "tokenId",
          "type": "uint256"
        },
        {
          "internalType": "address",
          "name": "owner",
          "type": "address"
        }
      ],
      "name": "ERC721IncorrectOwner",
      "type": "error"
    },
    {
      "inputs": [
        {
          "internalType": "address",
          "name": "operator",
          "type": "address"
        },
        {
          "internalType": "uint256",
          "name": "tokenId",
          "type": "uint256"
        }
      ],
      "name": "ERC721InsufficientApproval",
      "type": "error"
    },
    {
      "inputs": [
        {
          "internalType": "address",
          "name": "approver",
          "type": "address"
        }
      ],
      "name": "ERC721InvalidApprover",
      "type": "error"
    },
    {
      "inputs": [
        {
          "internalType": "address",
          "name": "operator",
          "type": "address"
        }
      ],
      "name": "ERC721InvalidOperator",
      "type": "error"
    },
    {
      "inputs": [
        {
          "internalType": "address",
          "name": "owner",
          "type": "address"
        }
      ],
      "name": "ERC721InvalidOwner",
      "type": "error"
    },
    {
      "inputs": [
        {
          "internalType": "address",
          "name": "receiver",
          "type": "address"
        }
      ],
      "name": "ERC721InvalidReceiver",
      "type": "error"
    },
    {
      "inputs": [
        {
          "internalType": "address",
          "name": "sender",
          "type": "address"
        }
      ],
      "name": "ERC721InvalidSender",
      "type": "error"
    },
    {
      "inputs": [
        {
          "internalType": "uint256",
          "name": "tokenId",
          "type": "uint256"
        }
      ],
      "name": "ERC721NonexistentToken",
      "type": "error"
    },
    {
      "anonymous": false,
      "inputs": [
        {
          "indexed": true,
          "internalType": "address",
          "name": "owner",
          "type": "address"
        },
        {
          "indexed": true,
          "internalType": "address",
          "name": "approved",
          "type": "address"
        },
        {
          "indexed": true,
          "internalType": "uint256",
          "name": "tokenId",
          "type": "uint256"
        }
      ],
      "name": "Approval",
      "type": "event"
    },
    {
      "anonymous": false,
      "inputs": [
        {
          "indexed": true,
          "internalType": "address",
          "name": "owner",
          "type": "address"
        },
        {
          "indexed": true,
          "internalType": "address",
          "name": "operator",
          "type": "address"
        },
        {
          "indexed": false,
          "internalType": "bool",
          "name": "approved",
          "type": "bool"
        }
      ],
      "name": "ApprovalForAll",
      "type": "event"
    },
    {
      "anonymous": false,
      "inputs": [
        {
          "indexed": true,
          "internalType": "address",
          "name": "from",
          "type": "address"
        },
        {
          "indexed": true,
          "internalType": "address",
          "name": "to",
          "type": "address"
        },
        {
          "indexed": true,
          "internalType": "uint256",
          "name": "tokenId",
          "type": "uint256"
        }
      ],
      "name": "Transfer",
      "type": "event"
    },
    {
      "inputs": [],
      "name": "MY_CONTRACT",
      "outputs": [
        {
          "internalType": "string",
          "name": "",
          "type": "string"
        }
      ],
      "stateMutability": "view",
      "type": "function"
    },
    {
      "inputs": [
        {
          "internalType": "address",
          "name": "to",
          "type": "address"
        },
        {
          "internalType": "uint256",
          "name": "tokenId",
          "type": "uint256"
        }
      ],
      "name": "approve",
      "outputs": [],
      "stateMutability": "nonpayable",
      "type": "function"
    },
    {
      "inputs": [
        {
          "internalType": "address",
          "name": "owner",
          "type": "address"
        }
      ],
      "name": "balanceOf",
      "outputs": [
        {
          "internalType": "uint256",
          "name": "",
          "type": "uint256"
        }
      ],
      "stateMutability": "view",
      "type": "function"
    },
    {
      "inputs": [
        {
          "internalType": "uint256",
          "name": "tokenId",
          "type": "uint256"
        }
      ],
      "name": "getApproved",
      "outputs": [
        {
          "internalType": "address",
          "name": "",
          "type": "address"
        }
      ],
      "stateMutability": "view",
      "type": "function"
    },
    {
      "inputs": [
        {
          "internalType": "uint256",
          "name": "_memebeshipId",
          "type": "uint256"
        }
      ],
      "name": "getMembership",
      "outputs": [
        {
          "components": [
            {
              "internalType": "uint256",
              "name": "id",
              "type": "uint256"
            },
            {
              "internalType": "string",
              "name": "name",
              "type": "string"
            },
            {
              "internalType": "uint256",
              "name": "cost",
              "type": "uint256"
            },
            {
              "internalType": "string",
              "name": "date",
              "type": "string"
            }
          ],
          "internalType": "struct GPTMembership.Membership",
          "name": "",
          "type": "tuple"
        }
      ],
      "stateMutability": "view",
      "type": "function"
    },
    {
      "inputs": [
        {
          "internalType": "uint256",
          "name": "_membershipId",
          "type": "uint256"
        }
      ],
      "name": "getMembershipTaken",
      "outputs": [
        {
          "internalType": "uint256[]",
          "name": "",
          "type": "uint256[]"
        }
      ],
      "stateMutability": "view",
      "type": "function"
    },
    {
      "inputs": [
        {
          "internalType": "address",
          "name": "_address",
          "type": "address"
        }
      ],
      "name": "getUserMembership",
      "outputs": [
        {
          "components": [
            {
              "internalType": "uint256",
              "name": "id",
              "type": "uint256"
            },
            {
              "internalType": "uint256",
              "name": "membershipId",
              "type": "uint256"
            },
            {
              "internalType": "address",
              "name": "addressUser",
              "type": "address"
            },
            {
              "internalType": "uint256",
              "name": "cost",
              "type": "uint256"
            },
            {
              "internalType": "string",
              "name": "expireDate",
              "type": "string"
            }
          ],
          "internalType": "struct GPTMembership.UserMembership",
          "name": "",
          "type": "tuple"
        }
      ],
      "stateMutability": "view",
      "type": "function"
    },
    {
      "inputs": [
        {
          "internalType": "uint256",
          "name": "",
          "type": "uint256"
        },
        {
          "internalType": "address",
          "name": "",
          "type": "address"
        }
      ],
      "name": "hasBought",
      "outputs": [
        {
          "internalType": "bool",
          "name": "",
          "type": "bool"
        }
      ],
      "stateMutability": "view",
      "type": "function"
    },
    {
      "inputs": [
        {
          "internalType": "address",
          "name": "owner",
          "type": "address"
        },
        {
          "internalType": "address",
          "name": "operator",
          "type": "address"
        }
      ],
      "name": "isApprovedForAll",
      "outputs": [
        {
          "internalType": "bool",
          "name": "",
          "type": "bool"
        }
      ],
      "stateMutability": "view",
      "type": "function"
    },
    {
      "inputs": [
        {
          "internalType": "string",
          "name": "_name",
          "type": "string"
        },
        {
          "internalType": "uint256",
          "name": "_cost",
          "type": "uint256"
        },
        {
          "internalType": "string",
          "name": "_date",
          "type": "string"
        }
      ],
      "name": "list",
      "outputs": [],
      "stateMutability": "nonpayable",
      "type": "function"
    },
    {
      "inputs": [
        {
          "internalType": "uint256",
          "name": "",
          "type": "uint256"
        },
        {
          "internalType": "uint256",
          "name": "",
          "type": "uint256"
        }
      ],
      "name": "membershipTaken",
      "outputs": [
        {
          "internalType": "address",
          "name": "",
          "type": "address"
        }
      ],
      "stateMutability": "view",
      "type": "function"
    },
    {
      "inputs": [],
      "name": "membershipTypes",
      "outputs": [
        {
          "internalType": "uint256",
          "name": "",
          "type": "uint256"
        }
      ],
      "stateMutability": "view",
      "type": "function"
    },
    {
      "inputs": [
        {
          "internalType": "uint256",
          "name": "_membershipId",
          "type": "uint256"
        },
        {
          "internalType": "address",
          "name": "_user",
          "type": "address"
        },
        {
          "internalType": "string",
          "name": "_expiredDate",
          "type": "string"
        }
      ],
      "name": "mint",
      "outputs": [],
      "stateMutability": "payable",
      "type": "function"
    },
    {
      "inputs": [],
      "name": "name",
      "outputs": [
        {
          "internalType": "string",
          "name": "",
          "type": "string"
        }
      ],
      "stateMutability": "view",
      "type": "function"
    },
    {
      "inputs": [],
      "name": "owner",
      "outputs": [
        {
          "internalType": "address",
          "name": "",
          "type": "address"
        }
      ],
      "stateMutability": "view",
      "type": "function"
    },
    {
      "inputs": [
        {
          "internalType": "uint256",
          "name": "tokenId",
          "type": "uint256"
        }
      ],
      "name": "ownerOf",
      "outputs": [
        {
          "internalType": "address",
          "name": "",
          "type": "address"
        }
      ],
      "stateMutability": "view",
      "type": "function"
    },
    {
      "inputs": [
        {
          "internalType": "address",
          "name": "from",
          "type": "address"
        },
        {
          "internalType": "address",
          "name": "to",
          "type": "address"
        },
        {
          "internalType": "uint256",
          "name": "tokenId",
          "type": "uint256"
        }
      ],
      "name": "safeTransferFrom",
      "outputs": [],
      "stateMutability": "nonpayable",
      "type": "function"
    },
    {
      "inputs": [
        {
          "internalType": "address",
          "name": "from",
          "type": "address"
        },
        {
          "internalType": "address",
          "name": "to",
          "type": "address"
        },
        {
          "internalType": "uint256",
          "name": "tokenId",
          "type": "uint256"
        },
        {
          "internalType": "bytes",
          "name": "data",
          "type": "bytes"
        }
      ],
      "name": "safeTransferFrom",
      "outputs": [],
      "stateMutability": "nonpayable",
      "type": "function"
    },
    {
      "inputs": [
        {
          "internalType": "address",
          "name": "operator",
          "type": "address"
        },
        {
          "internalType": "bool",
          "name": "approved",
          "type": "bool"
        }
      ],
      "name": "setApprovalForAll",
      "outputs": [],
      "stateMutability": "nonpayable",
      "type": "function"
    },
    {
      "inputs": [
        {
          "internalType": "bytes4",
          "name": "interfaceId",
          "type": "bytes4"
        }
      ],
      "name": "supportsInterface",
      "outputs": [
        {
          "internalType": "bool",
          "name": "",
          "type": "bool"
        }
      ],
      "stateMutability": "view",
      "type": "function"
    },
    {
      "inputs": [],
      "name": "symbol",
      "outputs": [
        {
          "internalType": "string",
          "name": "",
          "type": "string"
        }
      ],
      "stateMutability": "view",
      "type": "function"
    },
    {
      "inputs": [
        {
          "internalType": "uint256",
          "name": "tokenId",
          "type": "uint256"
        }
      ],
      "name": "tokenURI",
      "outputs": [
        {
          "internalType": "string",
          "name": "",
          "type": "string"
        }
      ],
      "stateMutability": "view",
      "type": "function"
    },
    {
      "inputs": [],
      "name": "totalMemberships",
      "outputs": [
        {
          "internalType": "uint256",
          "name": "",
          "type": "uint256"
        }
      ],
      "stateMutability": "view",
      "type": "function"
    },
    {
      "inputs": [
        {
          "internalType": "address",
          "name": "from",
          "type": "address"
        },
        {
          "internalType": "address",
          "name": "to",
          "type": "address"
        },
        {
          "internalType": "uint256",
          "name": "tokenId",
          "type": "uint256"
        }
      ],
      "name": "transferFrom",
      "outputs": [],
      "stateMutability": "nonpayable",
      "type": "function"
    },
    {
      "inputs": [],
      "name": "withdarw",
      "outputs": [],
      "stateMutability": "nonpayable",
      "type": "function"
    }
  ],
  "bytecode": "0x60806040526040518060400160405280600c81526020017f4a4552454d49414820542e410000000000000000000000000000000000000000815250600990816200004a919062000369565b503480156200005857600080fd5b5060405162003a9e38038062003a9e83398181016040528101906200007e9190620005b4565b8181816000908162000091919062000369565b508060019081620000a3919062000369565b50505033600660006101000a81548173ffffffffffffffffffffffffffffffffffffffff021916908373ffffffffffffffffffffffffffffffffffffffff160217905550505062000639565b600081519050919050565b7f4e487b7100000000000000000000000000000000000000000000000000000000600052604160045260246000fd5b7f4e487b7100000000000000000000000000000000000000000000000000000000600052602260045260246000fd5b600060028204905060018216806200017157607f821691505b60208210810362000187576200018662000129565b5b50919050565b60008190508160005260206000209050919050565b60006020601f8301049050919050565b600082821b905092915050565b600060088302620001f17fffffffffffffffffffffffffffffffffffffffffffffffffffffffffffffffff82620001b2565b620001fd8683620001b2565b95508019841693508086168417925050509392505050565b6000819050919050565b6000819050919050565b60006200024a620002446200023e8462000215565b6200021f565b62000215565b9050919050565b6000819050919050565b620002668362000229565b6200027e620002758262000251565b848454620001bf565b825550505050565b600090565b6200029562000286565b620002a28184846200025b565b505050565b5b81811015620002ca57620002be6000826200028b565b600181019050620002a8565b5050565b601f8211156200031957620002e3816200018d565b620002ee84620001a2565b81016020851015620002fe578190505b620003166200030d85620001a2565b830182620002a7565b50505b505050565b600082821c905092915050565b60006200033e600019846008026200031e565b1980831691505092915050565b60006200035983836200032b565b9150826002028217905092915050565b6200037482620000ef565b67ffffffffffffffff81111562000390576200038f620000fa565b5b6200039c825462000158565b620003a9828285620002ce565b600060209050601f831160018114620003e15760008415620003cc578287015190505b620003d885826200034b565b86555062000448565b601f198416620003f1866200018d565b60005b828110156200041b57848901518255600182019150602085019450602081019050620003f4565b868310156200043b578489015162000437601f8916826200032b565b8355505b6001600288020188555050505b505050505050565b6000604051905090565b600080fd5b600080fd5b600080fd5b600080fd5b6000601f19601f8301169050919050565b6200048a826200046e565b810181811067ffffffffffffffff82111715620004ac57620004ab620000fa565b5b80604052505050565b6000620004c162000450565b9050620004cf82826200047f565b919050565b600067ffffffffffffffff821115620004f257620004f1620000fa565b5b620004fd826200046e565b9050602081019050919050565b60005b838110156200052a5780820151818401526020810190506200050d565b60008484015250505050565b60006200054d6200054784620004d4565b620004b5565b9050828152602081018484840111156200056c576200056b62000469565b5b620005798482856200050a565b509392505050565b600082601f83011262000599576200059862000464565b5b8151620005ab84826020860162000536565b91505092915050565b60008060408385031215620005ce57620005cd6200045a565b5b600083015167ffffffffffffffff811115620005ef57620005ee6200045f565b5b620005fd8582860162000581565b925050602083015167ffffffffffffffff8111156200062157620006206200045f565b5b6200062f8582860162000581565b9150509250929050565b61345580620006496000396000f3fe6080604052600436106101665760003560e01c806395d89b41116100d1578063bcd57d041161008a578063e67e402c11610064578063e67e402c1461059a578063e985e9c5146105b6578063f7884856146105f3578063f9efde301461060a57610166565b8063bcd57d04146104f7578063c87b56dd14610520578063d12196841461055d57610166565b806395d89b41146103d55780639bb11c42146104005780639cb04aef1461042b578063a22cb46514610468578063adf9f12914610491578063b88d4fde146104ce57610166565b80633d07be7b116101235780633d07be7b1461029f57806342842e0e146102dc5780636352211e1461030557806370a08231146103425780638da5cb5b1461037f5780639485cfed146103aa57610166565b806301ffc9a71461016b57806306fdde03146101a8578063081812fc146101d3578063095ea7b31461021057806323b872dd1461023957806338fbf2c614610262575b600080fd5b34801561017757600080fd5b50610192600480360381019061018d9190612382565b610635565b60405161019f91906123ca565b60405180910390f35b3480156101b457600080fd5b506101bd610717565b6040516101ca9190612475565b60405180910390f35b3480156101df57600080fd5b506101fa60048036038101906101f591906124cd565b6107a9565b604051610207919061253b565b60405180910390f35b34801561021c57600080fd5b5061023760048036038101906102329190612582565b6107c5565b005b34801561024557600080fd5b50610260600480360381019061025b91906125c2565b6107db565b005b34801561026e57600080fd5b50610289600480360381019061028491906124cd565b6108dd565b60405161029691906126d8565b60405180910390f35b3480156102ab57600080fd5b506102c660048036038101906102c191906126fa565b610a42565b6040516102d391906127ac565b60405180910390f35b3480156102e857600080fd5b5061030360048036038101906102fe91906125c2565b610ba1565b005b34801561031157600080fd5b5061032c600480360381019061032791906124cd565b610bc1565b604051610339919061253b565b60405180910390f35b34801561034e57600080fd5b50610369600480360381019061036491906126fa565b610bd3565b60405161037691906127dd565b60405180910390f35b34801561038b57600080fd5b50610394610c8d565b6040516103a1919061253b565b60405180910390f35b3480156103b657600080fd5b506103bf610cb3565b6040516103cc91906127dd565b60405180910390f35b3480156103e157600080fd5b506103ea610cb9565b6040516103f79190612475565b60405180910390f35b34801561040c57600080fd5b50610415610d4b565b60405161042291906127dd565b60405180910390f35b34801561043757600080fd5b50610452600480360381019061044d91906127f8565b610d51565b60405161045f91906123ca565b60405180910390f35b34801561047457600080fd5b5061048f600480360381019061048a9190612864565b610d80565b005b34801561049d57600080fd5b506104b860048036038101906104b391906124cd565b610d96565b6040516104c59190612953565b60405180910390f35b3480156104da57600080fd5b506104f560048036038101906104f09190612aaa565b610e01565b005b34801561050357600080fd5b5061051e60048036038101906105199190612bce565b610e1e565b005b34801561052c57600080fd5b50610547600480360381019061054291906124cd565b610f46565b6040516105549190612475565b60405180910390f35b34801561056957600080fd5b50610584600480360381019061057f9190612c59565b610faf565b604051610591919061253b565b60405180910390f35b6105b460048036038101906105af9190612c99565b610ff1565b005b3480156105c257600080fd5b506105dd60048036038101906105d89190612d08565b6112e1565b6040516105ea91906123ca565b60405180910390f35b3480156105ff57600080fd5b50610608611375565b005b34801561061657600080fd5b5061061f6114a0565b60405161062c9190612475565b60405180910390f35b60007f80ac58cd000000000000000000000000000000000000000000000000000000007bffffffffffffffffffffffffffffffffffffffffffffffffffffffff1916827bffffffffffffffffffffffffffffffffffffffffffffffffffffffff1916148061070057507f5b5e139f000000000000000000000000000000000000000000000000000000007bffffffffffffffffffffffffffffffffffffffffffffffffffffffff1916827bffffffffffffffffffffffffffffffffffffffffffffffffffffffff1916145b80610710575061070f8261152e565b5b9050919050565b60606000805461072690612d77565b80601f016020809104026020016040519081016040528092919081815260200182805461075290612d77565b801561079f5780601f106107745761010080835404028352916020019161079f565b820191906000526020600020905b81548152906001019060200180831161078257829003601f168201915b5050505050905090565b60006107b482611598565b506107be82611620565b9050919050565b6107d782826107d261165d565b611665565b5050565b600073ffffffffffffffffffffffffffffffffffffffff168273ffffffffffffffffffffffffffffffffffffffff160361084d5760006040517f64a0ae92000000000000000000000000000000000000000000000000000000008152600401610844919061253b565b60405180910390fd5b6000610861838361085c61165d565b611677565b90508373ffffffffffffffffffffffffffffffffffffffff168173ffffffffffffffffffffffffffffffffffffffff16146108d7578382826040517f64283d7b0000000000000000000000000000000000000000000000000000000081526004016108ce93929190612da8565b60405180910390fd5b50505050565b6108e56122a9565b600b60008381526020019081526020016000206040518060800160405290816000820154815260200160018201805461091d90612d77565b80601f016020809104026020016040519081016040528092919081815260200182805461094990612d77565b80156109965780601f1061096b57610100808354040283529160200191610996565b820191906000526020600020905b81548152906001019060200180831161097957829003601f168201915b50505050508152602001600282015481526020016003820180546109b990612d77565b80601f01602080910402602001604051908101604052809291908181526020018280546109e590612d77565b8015610a325780601f10610a0757610100808354040283529160200191610a32565b820191906000526020600020905b815481529060010190602001808311610a1557829003601f168201915b5050505050815250509050919050565b610a4a6122d1565b600a60008373ffffffffffffffffffffffffffffffffffffffff1673ffffffffffffffffffffffffffffffffffffffff1681526020019081526020016000206040518060a001604052908160008201548152602001600182015481526020016002820160009054906101000a900473ffffffffffffffffffffffffffffffffffffffff1673ffffffffffffffffffffffffffffffffffffffff1673ffffffffffffffffffffffffffffffffffffffff16815260200160038201548152602001600482018054610b1890612d77565b80601f0160208091040260200160405190810160405280929190818152602001828054610b4490612d77565b8015610b915780601f10610b6657610100808354040283529160200191610b91565b820191906000526020600020905b815481529060010190602001808311610b7457829003601f168201915b5050505050815250509050919050565b610bbc83838360405180602001604052806000815250610e01565b505050565b6000610bcc82611598565b9050919050565b60008073ffffffffffffffffffffffffffffffffffffffff168273ffffffffffffffffffffffffffffffffffffffff1603610c465760006040517f89c62b64000000000000000000000000000000000000000000000000000000008152600401610c3d919061253b565b60405180910390fd5b600360008373ffffffffffffffffffffffffffffffffffffffff1673ffffffffffffffffffffffffffffffffffffffff168152602001908152602001600020549050919050565b600660009054906101000a900473ffffffffffffffffffffffffffffffffffffffff1681565b60075481565b606060018054610cc890612d77565b80601f0160208091040260200160405190810160405280929190818152602001828054610cf490612d77565b8015610d415780601f10610d1657610100808354040283529160200191610d41565b820191906000526020600020905b815481529060010190602001808311610d2457829003601f168201915b5050505050905090565b60085481565b600c6020528160005260406000206020528060005260406000206000915091509054906101000a900460ff1681565b610d92610d8b61165d565b8383611891565b5050565b6060600e6000838152602001908152602001600020805480602002602001604051908101604052809291908181526020018280548015610df557602002820191906000526020600020905b815481526020019060010190808311610de1575b50505050509050919050565b610e0c8484846107db565b610e1884848484611a00565b50505050565b600660009054906101000a900473ffffffffffffffffffffffffffffffffffffffff1673ffffffffffffffffffffffffffffffffffffffff163373ffffffffffffffffffffffffffffffffffffffff1614610eae576040517f08c379a0000000000000000000000000000000000000000000000000000000008152600401610ea590612e51565b60405180910390fd5b60076000815480929190610ec190612ea0565b91905055506040518060800160405280600754815260200184815260200183815260200182815250600b60006007548152602001908152602001600020600082015181600001556020820151816001019081610f1d9190613094565b50604082015181600201556060820151816003019081610f3d9190613094565b50905050505050565b6060610f5182611598565b506000610f5c611bb7565b90506000815111610f7c5760405180602001604052806000815250610fa7565b80610f8684611bce565b604051602001610f979291906131a2565b6040516020818303038152906040525b915050919050565b600d6020528160005260406000206020528060005260406000206000915091509054906101000a900473ffffffffffffffffffffffffffffffffffffffff1681565b60008303611034576040517f08c379a000000000000000000000000000000000000000000000000000000000815260040161102b90613212565b60405180910390fd5b60075483111561104357600080fd5b600b60008481526020019081526020016000206002015434101561109c576040517f08c379a00000000000000000000000000000000000000000000000000000000081526004016110939061327e565b60405180910390fd5b600860008154809291906110af90612ea0565b91905055506040518060a0016040528060085481526020018481526020018373ffffffffffffffffffffffffffffffffffffffff168152602001600b600086815260200190815260200160002060020154815260200182815250600a60008473ffffffffffffffffffffffffffffffffffffffff1673ffffffffffffffffffffffffffffffffffffffff168152602001908152602001600020600082015181600001556020820151816001015560408201518160020160006101000a81548173ffffffffffffffffffffffffffffffffffffffff021916908373ffffffffffffffffffffffffffffffffffffffff1602179055506060820151816003015560808201518160040190816111c29190613094565b509050506001600c600085815260200190815260200160002060003373ffffffffffffffffffffffffffffffffffffffff1673ffffffffffffffffffffffffffffffffffffffff16815260200190815260200160002060006101000a81548160ff02191690831515021790555033600d60008581526020019081526020016000206000600854815260200190815260200160002060006101000a81548173ffffffffffffffffffffffffffffffffffffffff021916908373ffffffffffffffffffffffffffffffffffffffff160217905550600e600084815260200190815260200160002060085490806001815401808255809150506001900390600052602060002001600090919091909150556112dc33600854611c9c565b505050565b6000600560008473ffffffffffffffffffffffffffffffffffffffff1673ffffffffffffffffffffffffffffffffffffffff16815260200190815260200160002060008373ffffffffffffffffffffffffffffffffffffffff1673ffffffffffffffffffffffffffffffffffffffff16815260200190815260200160002060009054906101000a900460ff16905092915050565b600660009054906101000a900473ffffffffffffffffffffffffffffffffffffffff1673ffffffffffffffffffffffffffffffffffffffff163373ffffffffffffffffffffffffffffffffffffffff1614611405576040517f08c379a00000000000000000000000000000000000000000000000000000000081526004016113fc90612e51565b60405180910390fd5b6000600660009054906101000a900473ffffffffffffffffffffffffffffffffffffffff1673ffffffffffffffffffffffffffffffffffffffff164760405161144d906132cf565b60006040518083038185875af1925050503d806000811461148a576040519150601f19603f3d011682016040523d82523d6000602084013e61148f565b606091505b505090508061149d57600080fd5b50565b600980546114ad90612d77565b80601f01602080910402602001604051908101604052809291908181526020018280546114d990612d77565b80156115265780601f106114fb57610100808354040283529160200191611526565b820191906000526020600020905b81548152906001019060200180831161150957829003601f168201915b505050505081565b60007f01ffc9a7000000000000000000000000000000000000000000000000000000007bffffffffffffffffffffffffffffffffffffffffffffffffffffffff1916827bffffffffffffffffffffffffffffffffffffffffffffffffffffffff1916149050919050565b6000806115a483611cba565b9050600073ffffffffffffffffffffffffffffffffffffffff168173ffffffffffffffffffffffffffffffffffffffff160361161757826040517f7e27328900000000000000000000000000000000000000000000000000000000815260040161160e91906127dd565b60405180910390fd5b80915050919050565b60006004600083815260200190815260200160002060009054906101000a900473ffffffffffffffffffffffffffffffffffffffff169050919050565b600033905090565b6116728383836001611cf7565b505050565b60008061168384611cba565b9050600073ffffffffffffffffffffffffffffffffffffffff168373ffffffffffffffffffffffffffffffffffffffff16146116c5576116c4818486611ebc565b5b600073ffffffffffffffffffffffffffffffffffffffff168173ffffffffffffffffffffffffffffffffffffffff161461175657611707600085600080611cf7565b6001600360008373ffffffffffffffffffffffffffffffffffffffff1673ffffffffffffffffffffffffffffffffffffffff168152602001908152602001600020600082825403925050819055505b600073ffffffffffffffffffffffffffffffffffffffff168573ffffffffffffffffffffffffffffffffffffffff16146117d9576001600360008773ffffffffffffffffffffffffffffffffffffffff1673ffffffffffffffffffffffffffffffffffffffff168152602001908152602001600020600082825401925050819055505b846002600086815260200190815260200160002060006101000a81548173ffffffffffffffffffffffffffffffffffffffff021916908373ffffffffffffffffffffffffffffffffffffffff160217905550838573ffffffffffffffffffffffffffffffffffffffff168273ffffffffffffffffffffffffffffffffffffffff167fddf252ad1be2c89b69c2b068fc378daa952ba7f163c4a11628f55a4df523b3ef60405160405180910390a4809150509392505050565b600073ffffffffffffffffffffffffffffffffffffffff168273ffffffffffffffffffffffffffffffffffffffff160361190257816040517f5b08ba180000000000000000000000000000000000000000000000000000000081526004016118f9919061253b565b60405180910390fd5b80600560008573ffffffffffffffffffffffffffffffffffffffff1673ffffffffffffffffffffffffffffffffffffffff16815260200190815260200160002060008473ffffffffffffffffffffffffffffffffffffffff1673ffffffffffffffffffffffffffffffffffffffff16815260200190815260200160002060006101000a81548160ff0219169083151502179055508173ffffffffffffffffffffffffffffffffffffffff168373ffffffffffffffffffffffffffffffffffffffff167f17307eab39ab6107e8899845ad3d59bd9653f200f220920489ca2b5937696c31836040516119f391906123ca565b60405180910390a3505050565b60008373ffffffffffffffffffffffffffffffffffffffff163b1115611bb1578273ffffffffffffffffffffffffffffffffffffffff1663150b7a02611a4461165d565b8685856040518563ffffffff1660e01b8152600401611a669493929190613339565b6020604051808303816000875af1925050508015611aa257506040513d601f19601f82011682018060405250810190611a9f919061339a565b60015b611b26573d8060008114611ad2576040519150601f19603f3d011682016040523d82523d6000602084013e611ad7565b606091505b506000815103611b1e57836040517f64a0ae92000000000000000000000000000000000000000000000000000000008152600401611b15919061253b565b60405180910390fd5b805181602001fd5b63150b7a0260e01b7bffffffffffffffffffffffffffffffffffffffffffffffffffffffff1916817bffffffffffffffffffffffffffffffffffffffffffffffffffffffff191614611baf57836040517f64a0ae92000000000000000000000000000000000000000000000000000000008152600401611ba6919061253b565b60405180910390fd5b505b50505050565b606060405180602001604052806000815250905090565b606060006001611bdd84611f80565b01905060008167ffffffffffffffff811115611bfc57611bfb61297f565b5b6040519080825280601f01601f191660200182016040528015611c2e5781602001600182028036833780820191505090505b509050600082602001820190505b600115611c91578080600190039150507f3031323334353637383961626364656600000000000000000000000000000000600a86061a8153600a8581611c8557611c846133c7565b5b04945060008503611c3c575b819350505050919050565b611cb68282604051806020016040528060008152506120d3565b5050565b60006002600083815260200190815260200160002060009054906101000a900473ffffffffffffffffffffffffffffffffffffffff169050919050565b8080611d305750600073ffffffffffffffffffffffffffffffffffffffff168273ffffffffffffffffffffffffffffffffffffffff1614155b15611e64576000611d4084611598565b9050600073ffffffffffffffffffffffffffffffffffffffff168373ffffffffffffffffffffffffffffffffffffffff1614158015611dab57508273ffffffffffffffffffffffffffffffffffffffff168173ffffffffffffffffffffffffffffffffffffffff1614155b8015611dbe5750611dbc81846112e1565b155b15611e0057826040517fa9fbf51f000000000000000000000000000000000000000000000000000000008152600401611df7919061253b565b60405180910390fd5b8115611e6257838573ffffffffffffffffffffffffffffffffffffffff168273ffffffffffffffffffffffffffffffffffffffff167f8c5be1e5ebec7d5bd14f71427d1e84f3dd0314c0f7b2291e5b200ac8c7c3b92560405160405180910390a45b505b836004600085815260200190815260200160002060006101000a81548173ffffffffffffffffffffffffffffffffffffffff021916908373ffffffffffffffffffffffffffffffffffffffff16021790555050505050565b611ec78383836120ef565b611f7b57600073ffffffffffffffffffffffffffffffffffffffff168373ffffffffffffffffffffffffffffffffffffffff1603611f3c57806040517f7e273289000000000000000000000000000000000000000000000000000000008152600401611f3391906127dd565b60405180910390fd5b81816040517f177e802f000000000000000000000000000000000000000000000000000000008152600401611f729291906133f6565b60405180910390fd5b505050565b600080600090507a184f03e93ff9f4daa797ed6e38ed64bf6a1f0100000000000000008310611fde577a184f03e93ff9f4daa797ed6e38ed64bf6a1f0100000000000000008381611fd457611fd36133c7565b5b0492506040810190505b6d04ee2d6d415b85acef8100000000831061201b576d04ee2d6d415b85acef81000000008381612011576120106133c7565b5b0492506020810190505b662386f26fc10000831061204a57662386f26fc1000083816120405761203f6133c7565b5b0492506010810190505b6305f5e1008310612073576305f5e1008381612069576120686133c7565b5b0492506008810190505b612710831061209857612710838161208e5761208d6133c7565b5b0492506004810190505b606483106120bb57606483816120b1576120b06133c7565b5b0492506002810190505b600a83106120ca576001810190505b80915050919050565b6120dd83836121b0565b6120ea6000848484611a00565b505050565b60008073ffffffffffffffffffffffffffffffffffffffff168373ffffffffffffffffffffffffffffffffffffffff16141580156121a757508273ffffffffffffffffffffffffffffffffffffffff168473ffffffffffffffffffffffffffffffffffffffff161480612168575061216784846112e1565b5b806121a657508273ffffffffffffffffffffffffffffffffffffffff1661218e83611620565b73ffffffffffffffffffffffffffffffffffffffff16145b5b90509392505050565b600073ffffffffffffffffffffffffffffffffffffffff168273ffffffffffffffffffffffffffffffffffffffff16036122225760006040517f64a0ae92000000000000000000000000000000000000000000000000000000008152600401612219919061253b565b60405180910390fd5b600061223083836000611677565b9050600073ffffffffffffffffffffffffffffffffffffffff168173ffffffffffffffffffffffffffffffffffffffff16146122a45760006040517f73c6ac6e00000000000000000000000000000000000000000000000000000000815260040161229b919061253b565b60405180910390fd5b505050565b6040518060800160405280600081526020016060815260200160008152602001606081525090565b6040518060a001604052806000815260200160008152602001600073ffffffffffffffffffffffffffffffffffffffff16815260200160008152602001606081525090565b6000604051905090565b600080fd5b600080fd5b60007fffffffff0000000000000000000000000000000000000000000000000000000082169050919050565b61235f8161232a565b811461236a57600080fd5b50565b60008135905061237c81612356565b92915050565b60006020828403121561239857612397612320565b5b60006123a68482850161236d565b91505092915050565b60008115159050919050565b6123c4816123af565b82525050565b60006020820190506123df60008301846123bb565b92915050565b600081519050919050565b600082825260208201905092915050565b60005b8381101561241f578082015181840152602081019050612404565b60008484015250505050565b6000601f19601f8301169050919050565b6000612447826123e5565b61245181856123f0565b9350612461818560208601612401565b61246a8161242b565b840191505092915050565b6000602082019050818103600083015261248f818461243c565b905092915050565b6000819050919050565b6124aa81612497565b81146124b557600080fd5b50565b6000813590506124c7816124a1565b92915050565b6000602082840312156124e3576124e2612320565b5b60006124f1848285016124b8565b91505092915050565b600073ffffffffffffffffffffffffffffffffffffffff82169050919050565b6000612525826124fa565b9050919050565b6125358161251a565b82525050565b6000602082019050612550600083018461252c565b92915050565b61255f8161251a565b811461256a57600080fd5b50565b60008135905061257c81612556565b92915050565b6000806040838503121561259957612598612320565b5b60006125a78582860161256d565b92505060206125b8858286016124b8565b9150509250929050565b6000806000606084860312156125db576125da612320565b5b60006125e98682870161256d565b93505060206125fa8682870161256d565b925050604061260b868287016124b8565b9150509250925092565b61261e81612497565b82525050565b600082825260208201905092915050565b6000612640826123e5565b61264a8185612624565b935061265a818560208601612401565b6126638161242b565b840191505092915050565b60006080830160008301516126866000860182612615565b506020830151848203602086015261269e8282612635565b91505060408301516126b36040860182612615565b50606083015184820360608601526126cb8282612635565b9150508091505092915050565b600060208201905081810360008301526126f2818461266e565b905092915050565b6000602082840312156127105761270f612320565b5b600061271e8482850161256d565b91505092915050565b6127308161251a565b82525050565b600060a08301600083015161274e6000860182612615565b5060208301516127616020860182612615565b5060408301516127746040860182612727565b5060608301516127876060860182612615565b506080830151848203608086015261279f8282612635565b9150508091505092915050565b600060208201905081810360008301526127c68184612736565b905092915050565b6127d781612497565b82525050565b60006020820190506127f260008301846127ce565b92915050565b6000806040838503121561280f5761280e612320565b5b600061281d858286016124b8565b925050602061282e8582860161256d565b9150509250929050565b612841816123af565b811461284c57600080fd5b50565b60008135905061285e81612838565b92915050565b6000806040838503121561287b5761287a612320565b5b60006128898582860161256d565b925050602061289a8582860161284f565b9150509250929050565b600081519050919050565b600082825260208201905092915050565b6000819050602082019050919050565b60006128dc8383612615565b60208301905092915050565b6000602082019050919050565b6000612900826128a4565b61290a81856128af565b9350612915836128c0565b8060005b8381101561294657815161292d88826128d0565b9750612938836128e8565b925050600181019050612919565b5085935050505092915050565b6000602082019050818103600083015261296d81846128f5565b905092915050565b600080fd5b600080fd5b7f4e487b7100000000000000000000000000000000000000000000000000000000600052604160045260246000fd5b6129b78261242b565b810181811067ffffffffffffffff821117156129d6576129d561297f565b5b80604052505050565b60006129e9612316565b90506129f582826129ae565b919050565b600067ffffffffffffffff821115612a1557612a1461297f565b5b612a1e8261242b565b9050602081019050919050565b82818337600083830152505050565b6000612a4d612a48846129fa565b6129df565b905082815260208101848484011115612a6957612a6861297a565b5b612a74848285612a2b565b509392505050565b600082601f830112612a9157612a90612975565b5b8135612aa1848260208601612a3a565b91505092915050565b60008060008060808587031215612ac457612ac3612320565b5b6000612ad28782880161256d565b9450506020612ae38782880161256d565b9350506040612af4878288016124b8565b925050606085013567ffffffffffffffff811115612b1557612b14612325565b5b612b2187828801612a7c565b91505092959194509250565b600067ffffffffffffffff821115612b4857612b4761297f565b5b612b518261242b565b9050602081019050919050565b6000612b71612b6c84612b2d565b6129df565b905082815260208101848484011115612b8d57612b8c61297a565b5b612b98848285612a2b565b509392505050565b600082601f830112612bb557612bb4612975565b5b8135612bc5848260208601612b5e565b91505092915050565b600080600060608486031215612be757612be6612320565b5b600084013567ffffffffffffffff811115612c0557612c04612325565b5b612c1186828701612ba0565b9350506020612c22868287016124b8565b925050604084013567ffffffffffffffff811115612c4357612c42612325565b5b612c4f86828701612ba0565b9150509250925092565b60008060408385031215612c7057612c6f612320565b5b6000612c7e858286016124b8565b9250506020612c8f858286016124b8565b9150509250929050565b600080600060608486031215612cb257612cb1612320565b5b6000612cc0868287016124b8565b9350506020612cd18682870161256d565b925050604084013567ffffffffffffffff811115612cf257612cf1612325565b5b612cfe86828701612ba0565b9150509250925092565b60008060408385031215612d1f57612d1e612320565b5b6000612d2d8582860161256d565b9250506020612d3e8582860161256d565b9150509250929050565b7f4e487b7100000000000000000000000000000000000000000000000000000000600052602260045260246000fd5b60006002820490506001821680612d8f57607f821691505b602082108103612da257612da1612d48565b5b50919050565b6000606082019050612dbd600083018661252c565b612dca60208301856127ce565b612dd7604083018461252c565b949350505050565b7f4f6e6c79206f776e65722063616e2063616c6c20746869732066756e6374696f60008201527f6e2e000000000000000000000000000000000000000000000000000000000000602082015250565b6000612e3b6022836123f0565b9150612e4682612ddf565b604082019050919050565b60006020820190508181036000830152612e6a81612e2e565b9050919050565b7f4e487b7100000000000000000000000000000000000000000000000000000000600052601160045260246000fd5b6000612eab82612497565b91507fffffffffffffffffffffffffffffffffffffffffffffffffffffffffffffffff8203612edd57612edc612e71565b5b600182019050919050565b60008190508160005260206000209050919050565b60006020601f8301049050919050565b600082821b905092915050565b600060088302612f4a7fffffffffffffffffffffffffffffffffffffffffffffffffffffffffffffffff82612f0d565b612f548683612f0d565b95508019841693508086168417925050509392505050565b6000819050919050565b6000612f91612f8c612f8784612497565b612f6c565b612497565b9050919050565b6000819050919050565b612fab83612f76565b612fbf612fb782612f98565b848454612f1a565b825550505050565b600090565b612fd4612fc7565b612fdf818484612fa2565b505050565b5b8181101561300357612ff8600082612fcc565b600181019050612fe5565b5050565b601f8211156130485761301981612ee8565b61302284612efd565b81016020851015613031578190505b61304561303d85612efd565b830182612fe4565b50505b505050565b600082821c905092915050565b600061306b6000198460080261304d565b1980831691505092915050565b6000613084838361305a565b9150826002028217905092915050565b61309d826123e5565b67ffffffffffffffff8111156130b6576130b561297f565b5b6130c08254612d77565b6130cb828285613007565b600060209050601f8311600181146130fe57600084156130ec578287015190505b6130f68582613078565b86555061315e565b601f19841661310c86612ee8565b60005b828110156131345784890151825560018201915060208501945060208101905061310f565b86831015613151578489015161314d601f89168261305a565b8355505b6001600288020188555050505b505050505050565b600081905092915050565b600061317c826123e5565b6131868185613166565b9350613196818560208601612401565b80840191505092915050565b60006131ae8285613171565b91506131ba8284613171565b91508190509392505050565b7f496e76616c6964206d656d626572736869704964000000000000000000000000600082015250565b60006131fc6014836123f0565b9150613207826131c6565b602082019050919050565b6000602082019050818103600083015261322b816131ef565b9050919050565b7f496e737566666963656e742066756e6473000000000000000000000000000000600082015250565b60006132686011836123f0565b915061327382613232565b602082019050919050565b600060208201905081810360008301526132978161325b565b9050919050565b600081905092915050565b50565b60006132b960008361329e565b91506132c4826132a9565b600082019050919050565b60006132da826132ac565b9150819050919050565b600081519050919050565b600082825260208201905092915050565b600061330b826132e4565b61331581856132ef565b9350613325818560208601612401565b61332e8161242b565b840191505092915050565b600060808201905061334e600083018761252c565b61335b602083018661252c565b61336860408301856127ce565b818103606083015261337a8184613300565b905095945050505050565b60008151905061339481612356565b92915050565b6000602082840312156133b0576133af612320565b5b60006133be84828501613385565b91505092915050565b7f4e487b7100000000000000000000000000000000000000000000000000000000600052601260045260246000fd5b600060408201905061340b600083018561252c565b61341860208301846127ce565b939250505056fea2646970667358221220358ba249d850200487a3aed2c21c84bf97024fa0f6c21efcd6534f5b551da9dc64736f6c63430008180033",
  "linkReferences": {},
  "deployedLinkReferences": {}
}